S016000046696E616C5F52544F535F44656D6F2E73333769
S31508000000001000201D0C0008D55C0008D55C00080F
S31508000010D55C0008D55C0008D55C0008D55C0008EE
S31508000020D55C0008D55C0008D55C000861020008AC
S31508000030D55C0008D55C0008F10100088763000854
S31508000040D55C0008D55C0008D55C0008D55C0008BE
S31508000050D55C0008D55C0008D55C0008D55C0008AE
S31508000060D55C0008D55C0008D55C0008D55C00089E
S31508000070D55C0008D55C0008D55C0008D55C00088E
S31508000080D55C0008D55C0008D55C0008D55C00087E
S31508000090D55C0008D55C0008D55C0008D55C00086E
S315080000A0D55C0008D55C0008A51300088113000874
S315080000B0D55C0008D55C0008D55C0008D55C00084E
S315080000C0D55C0008D55C0008D55C0008D55C00083E
S315080000D0D55C0008D55C0008D55C0008D55C00082E
S315080000E0D55C0008D55C0008D55C0008D55C00081E
S315080000F0D55C0008D55C0008D55C0008D55C00080E
S31508000100D55C0008D55C0008D55C0008D55C0008FD
S31508000110D55C0008D55C0008D55C0008D55C0008ED
S31508000120D55C0008D55C0008D55C0008D55C0008DD
S31508000130D55C0008D55C0008D55C0008D55C0008CD
S31508000140D55C0008D55C0008D55C0008D55C0008BD
S31508000150D55C0008D55C00082F630008D55C00084C
S31508000160D55C0008D55C0008D55C0008D55C00089D
S31508000170013800D0FCE770470000000000000000CE
S315080001800B4A1168086806C881F30B88022181F3B7
S315080001901488203080F30988BFF36F8F4FF0000072
S315080001A080F31188104700BFAFF30080AFF30080DB
S315080001B0B419002000000000000000000000000044
S315080001C007480068006880F3088862B661B6BFF31E
S315080001D04F8FBFF36F8F02DF00BF00BFAFF3008002
S315080001E008ED00E00000000000000000000000002C
S315080001F0EFF309801EF0100F08BF20ED108AEFF309
S315080002000B82734620E9FC0F114A116808604FF00B
S31508000210300080F31188BFF34F8FBFF36F8F04F060
S31508000220E9F94FF0000080F31188094A1168086857
S31508000230B0E8FC0F13F0100F08BFB0EC108A82F379
S315080002400B8880F309881847AFF30080AFF3008066
S31508000250B4190020000000000000000000000000A3
S315080002601EF0040F0CBFEFF30880EFF30980044972
S31508000270084700BFAFF30080AFF30080AFF30080FC
S31508000280D14D000810B5054C237833B9044B13B18A
S31508000290044800E000BF0123237010BDE0100020D1
S315080002A0000000001C79000808B5034B1BB1034980
S315080002B0034800E000BF08BD00000000E41000206D
S315080002C01C790008A3F5803A704700BF174B002B2E
S315080002D008BF134B9D46FFF7F5FF00218B460F46D7
S315080002E01348144A121A06F009FA0E4B002B00D0CE
S315080002F098470D4B002B00D098470020002104009A
S315080003000D000D48002802D00C4800E000BF05F09B
S3150800031075F82000290005F0E0FB05F05BF800BF42
S315080003200000080000000000000000000010002087
S31508000330E010002020480020000000000000000017
S3150800034037B50B4C0B4D4021206805F0ADFC6B46CC
S3150800035001AA4021206805F05CFC002369461A467C
S31508000360286803F0A5FC322004F026F9EBE700BF65
S315080003702810002030110020F0B585B005F0DDFB0F
S3150800038018B118211F4805F0AEFC002002F072FED5
S3150800039018B11C211B4805F0A6FC1B4802F0D4FE28
S315080003A018B12021174805F09EFC6FF07F42002304
S315080003B005250127144C154E2046C4E9012305F0EE
S315080003C0BFFD2046124905F024FF32680023511C60
S315080003D031602046CDE901570E490095D2B205F0A5
S315080003E025FF32680023D11931602046CDE901572F
S315080003F009490095D2B205F019FF05B0BDE8F040ED
S3150800040002F062BE8C69000800110020FC10002072
S31508000410DC6E0008A2690008AE690008F0B59FB056
S315080004204FF47A7004F0C8F8264F274D4FF47A74C3
S3150800043004A9FF22386803F02BFD059B0A26B3FBA7
S31508000440F4F204FB12332149B3FBF6F306A804F0D1
S31508000450F9FF049B1E4993FBF4F204FB12330EA822
S3150800046093FBF6F304F0EEFF1A4B16A81A781A4B0C
S31508000470052453F8221004F0E5FF284605F060FD30
S315080004800126002306A91A462846CDE90146009406
S3150800049005F0CCFE32460EA900232846CDE90146D2
S315080004A0009405F0C3FE0023022216A92846CDE9CA
S315080004B00146009405F0BAFE02F006FEC82004F0D4
S315080004C07BF8B3E73011002000110020BE69000850
S315080004D0D1690008761F00200010002073B500239C
S315080004E0204E214D214C8DF807300A2230680DF137
S315080004F0070103F0CDFC012805D1284605F07BFC51
S31508000500204605F078FC9DF80730042BEDD8DFE887
S3150800051003F0030813171F00284605F06FFC204652
S3150800052003E0204605F067FC284605F067FC4FF413
S31508000530FA7004F041F8D8E7284605F05CFCEEE7C7
S31508000540284605F05BFC4FF4FA7004F035F8E6E748
S31508000550284605F050FC204605F04DFC002004F026
S315080005609DF8C2E72C1100208C6A0008A46A0008CE
S3150800057013B500220821142003F060FB174B002254
S3150800058018600121142003F059FB154BA0221860AE
S31508000590144B15490193012314480093002306F0D0
S315080005A044F8134B0128186003D02721114805F099
S315080005B09AFB01240023A022CDE900430E490F48E7
S315080005C006F033F80E4A0023CDE900420D49A02271
S315080005D00D4806F02AF802B010BD00BF3011002001
S315080005E02C110020341100201E6A0008410300085F
S315080005F03C110020316A0008406A00081D04000802
S31508000600381100204D6A0008DD04000837B50025BA
S315080006100446019505F06DFB01281ED1134B9C423B
S315080006201DD1134A13780133DBB2032B98BF13701D
S31508000630104B88BF1570186803F024FE0E48002377
S315080006400B49006801AA03F0C9FB019B2BB14FF0C7
S31508000650E0234FF08052C3F8042D03B030BD074B9A
S315080006609C4202BF0422024B1A70E7E75C6A000844
S31508000670761F0020381100202C110020746A00080B
S3150800068010B5274C01F01AFC01F0D2FD236F23F0B8
S31508000690070343F00303236705F0FAFB214B002009
S315080006A09B6ADB015EBF4FF480321F4B9A62D4F817
S315080006B0203123F0070343F00203C4F82031D4F8AD
S315080006C0283123F0070343F00203C4F82831D4F88D
S315080006D0403123F0030343F00103C4F84031D4F852
S315080006E0603123F0030343F00103C4F86031D4F802
S315080006F0403223F0030343F00103C4F84032D4F830
S31508000700003223F0070343F00103C4F80032D4F89B
S31508000710083223F0070343F00103C4F8083210BD7A
S31508000720008000500040005A0060005A10B54FF48F
S3150800073080301E491E4A4B6E5066486E4FF0004187
S315080007404AF6CD3451661B4903F480334A6C0C646F
S3150800075002F001024C6BE407FCD4012416494C60F4
S31508000760A1F500510C6BE407FCD50AB1134A0A64DB
S315080007700028A2BF4FF00041114A51661BB94FF439
S3150800078080320F4B5A6602F039FE05F0EDF902F099
S31508000790D3FD02F0F9FDFFF773FF02F0E3FD05F064
S315080007A0D5F9BDE8104003F077B900BF00800050C6
S315080007B00090005000400950006009503254FFFF75
S315080007C000A0005008B53A20012101F0CFF8BDE895
S315080007D00840014800F0EEBB1410002008B5044894
S315080007E005F082FABDE80840024805F07DBA00BF68
S315080007F05C6A0008746A000808B5044805F0F8FA47
S31508000800BDE80840024805F0F3BA00BF8C6A000844
S31508000810A46A000808B508280ADC00280EDD013895
S3150800082007280BD8DFE800F00C140A1A0A0A0A1C73
S31508000830202819D0402819D0102813D09F2108E065
S31508000840032001230422002101F062FF002008BDD5
S315080008506D21074805F047FA0E20F8E77621F8E7F4
S315080008607F21F6E78821F4E79121F2E79A21F0E75C
S31508000870BC6A00082DE9F04389B00446214E01AD53
S31508000880884617460FCE0FC596E8070085E8070085
S315080008901D4E01213A20D4F80090D6F8985701F059
S315080008A065F86068012101F061F8617B207B00230F
S315080008B0042201F02DFF0422617A207A002301F038
S315080008C027FF0123484601A98DF81230CDF80C8080
S315080008D0ADF8147002F09EFA0020627A237A05F0C9
S315080008E0040543EA0243C6F8B037627B237B45F02A
S315080008F0180543EA0243C6F8AC37C6F8985709B054
S31508000900BDE8F083186B000800C0035013B5044611
S3150800091002F0DEFE00230122247BCDE900326400CA
S31508000920B0FBF4F1024A034805F0B4FC02B010BD6E
S3150800093039090008401100204022024BC3F8A020C4
S31508000940704700BF00F00350F7B54FF48076104C9F
S31508000950054604F58053C3F8A060407B03F070F8A1
S3150800096004230C4F02220DF106013846ADF8063075
S3150800097005F007F9384605F015F9A87B03F060F885
S31508000980002004F50054C4F8A06003B0F0BD00BF11
S3150800099000C003502C10002070B5064635460121CC
S315080009A03A2000F0E3FFB16800220F48FFF762FF24
S315080009B00E4C002304220821022001F0A9FE002380
S315080009C004220621022001F0A3FE0FCD0FC4012246
S315080009D02B6830462360064B1A70FFF797FF3046A0
S315080009E0FFF7B2FF002070BD2C1000206011002018
S315080009F0771F00202DE9F74F14464FF480720688BA
S31508000A009846037901345E43254BA4B2C3F8A02067
S31508000A100546407B0F4603F013F8230243F0010313
S31508000A20022220480DF10601ADF806304FF0000904
S31508000A3005F0A7F801342402DFF868B0F610A4B26E
S31508000A4008F1FF3AC14511D1164805F0ABF8A87B65
S31508000A5002F0F6FF4FF48072134B1248C3F8A02039
S31508000A6005F0A5F8002003B0BDE8F08F39463246F8
S31508000A70584605F086F8CA450CBF4FF6FF7344F092
S31508000A80FF03022258460DF1060104F58074ADF8FD
S31508000A900630374405F075F809F10109A4B2D1E723
S31508000AA000D003502C10002000E00350034B0448EC
S31508000AB01B78002B08BF0020704700BF771F002057
S31508000AC06011002030B587B0054D01AC0FCD0FC4BD
S31508000AD02B6801A82360FFF75FFF07B030BD00BF92
S31508000AE0346B00081022024BC3F8A020704700BFE1
S31508000AF000D003501022024BC3F8A020704700BF55
S31508000B0000E0035070B588B03F4D01AC0FCD0FC45F
S31508000B1095E8070084E80700012401213A2000F03F
S31508000B2025FF3A4E0121292000F020FF384B304698
S31508000B3001A903938DF8124002F06CF92346214669
S31508000B400422022001F0E4FD022122460846002381
S31508000B5001F0DEFD234604220321022001F0D8FD20
S31508000B60042223461146022001F0D2FD294D2A4BC4
S31508000B704FF44870C5F8AC374FF00213C5F8A837DC
S31508000B80A3F58033C5F8B0371C23C5F8983702F0AB
S31508000B9057FF1420FFF7AEFF02F052FF2320FFF79E
S31508000BA0A1FF02F04DFFB9213046FFF7A3FF05F07C
S31508000BB0AEF9FFF797FF002321461A46022001F0F7
S31508000BC0A7FD002302211A46084601F0A1FD234687
S31508000BD000220321022001F09BFD23460022042166
S31508000BE0022001F095FD304602F0E8F800212920A0
S31508000BF0C5F8AC17C5F8A817C5F8B017C5F89817FB
S31508000C0000F0B4FE08B070BD486B000800C005507F
S31508000C1000127A0000C003500200030008B500F075
S31508000C202DF8124B12498B4212D30020114B124950
S31508000C308B4218D3FFF74AFB186850F822405868C9
S31508000C4040F82240013298688242F5D30C33EAE72D
S31508000C500022F8E71C6844F8220001325C68A242C8
S31508000C60F8D30833E4E70022F8E700BF2479000840
S31508000C7030790008307900083079000810B54FF44B
S31508000C8080414FF0FF30114B114A9A60D3F8882003
S31508000C9042F47002C3F888200E4A91660E4901F59F
S31508000CA0005210660D4850660220C3F8D000BFF304
S31508000CB04F8FBFF36F8F01244FF440330848C0F8B5
S31508000CC08041D36004600B6110BD00BF00ED00E0F9
S31508000CD00000000800900050008000447FFF7F015C
S31508000CE000E100E0014B1868704700BF4010002083
S31508000CF0084B1B6F03F00703022B04D0032B05D008
S31508000D00012B05D0FEE7044B18687047034BFBE739
S31508000D10034870470080005040100020441000200F
S31508000D20002D310108B5FFF7E3FF054B1B6FC3F331
S31508000D3003330133B0FBF3F0024B186008BD00BF64
S31508000D40008000503C1000200048704700B4C404DE
S31508000D50014B1868704700BF44100020054B186007
S31508000D60054B1B6F03F00703032B01D1FFF7DABF0F
S31508000D70704700BF441000200080005000487047AC
S31508000D80002D31014FF0B4439868C0F304400C2895
S31508000D9022D8DFE800F0092121212121071719218E
S31508000DA01B1D1F000F4870479B6803F04073B3F183
S31508000DB0807F13D0B3F1007F12D00B4A002B08BFF7
S31508000DC010467047094870470948704709487047F0
S31508000DD00948704709487047002070470848704717
S31508000DE008487047405DC60000093D000024F4002D
S31508000DF0C0EA210180BA8C010048E801005A620263
S31508000E0080841E0040420F00014B1868704700BFDF
S31508000E104810002005490A681318054883428CBF04
S31508000E204FF0FF320B601046704700BF4C10002091
S31508000E300000012038B50D460446C0B1012819D076
S31508000E40022819D0032803D13F23EB40DB0704D43B
S31508000E5040F2CF310A4804F046FF3020142310FB35
S31508000E600434084BE058E84000F0010038BD40F271
S31508000E70FF73EAE77F23E8E740F2FF33E5E700BFC1
S31508000E80646B000830C0035037B504680121054675
S31508000E903A2000F06BFD002301226179207901F0E8
S31508000EA037FC61792079FFF7C5FFB0FA80F35B0953
S31508000EB02370A379022B15D100F00CFA2A460B49A8
S31508000EC0607900F031FAFF28054603D15C2108480D
S31508000ED004F009FF0123617920792A46CDE9003318
S31508000EE001F09AFB002003B030BD00BFFD5C00088E
S31508000EF0B06B000808B501213A2000F037FD032140
S31508000F0001230422002001F003FC002004F0F8FF6E
S31508000F100122214B4FF46070C3F8442400F052FDBF
S31508000F201E4B00F5D520D3F8F02000F2FC4042F025
S31508000F300102C3F8F020D3F8FC2042F08072C3F80F
S31508000F40FC20174AA3F55D431A60164B0222B0FB34
S31508000F50F3F0154B01381861C3F8F0204FF480728E
S31508000F60C3F804234FF06043104A0020C3F8B02F9B
S31508000F700F4AC3F8802ED3F8002E42F48072C3F8C5
S31508000F80002EFF2283F82020D3F8002E22F4807248
S31508000F90C3F8002E08BD00BF00D0035000ED00E0E6
S31508000FA0FF030040F8590D00000004E055CEACC51B
S31508000FB0090001002DE9FF47044618B939215948A7
S31508000FC004F091FE2368B3F1B64F0AD0564A93420D
S31508000FD000F083804F21534804B0BDE8F04704F081
S31508000FE082BE2E20012100F0C1FC01230A2261796C
S31508000FF0207901F08DFB01230A22E179A07901F01D
S3150800100087FB0A260127DFF82481DFF82491257952
S3150800101094F805A0002D62D0012D63D0022D63D06F
S31508001020032D04D13F2323FA0AF3DA0704D440F246
S31508001030FE31404604F057FE302202FB059507FABA
S315080010400AF305F501552B60642002F0F9FC2579B1
S3150800105094F805A0002D4AD0012D4BD0022D4BD077
S31508001060032D04D13F2323FA0AF3DB0704D440F205
S315080010702D41404604F037FE302202FB059507FA5B
S315080010800AF305F5825564202B6002F0D9FC013E6F
S31508001090BDD12068B0F1B64F31D10323C9F8383530
S315080010A06279237943EA0243C9F83C35E279A379A0
S315080010B043EA0243C9F8403540F20113ADF800305F
S315080010C0E36869460293A3680193237C8DF80C3084
S315080010D001F000FC04B0BDE8F0872F2082E740F25B
S315080010E0FF73A0E77F239EE740F2FF339BE740F2BA
S315080010F0FF73B8E77F23B6E740F2FF33B3E70A4B3F
S315080011009842D9D10323C9F848356279237943EA45
S315080011100243C9F84C35E279A37943EA0243C9F890
S315080011205035C9E70D6C000800800650646B00084E
S3150800113000C0035038B5054601F01EFD044C0128D1
S3150800114001D1013C00D138BD284601F0F5FBF6E790
S31508001150E193040038B50D460446B0B1012817D00E
S31508001160022817D0032803D13F23EB40DB0704D41A
S3150800117040F2FE31094804F0B6FD3020012144430F
S31508001180074B01FA05F51D5138BD40F2FF73ECE730
S315080011907F23EAE740F2FF33E7E700BF646B000806
S315080011A040E0035038B50D460446B0B1012817D0C3
S315080011B0022817D0032803D13F23EB40DB0704D4CA
S315080011C040F22D41094804F08EFD302001214443A8
S315080011D0074B01FA05F51D5138BD40F2FF73ECE7E0
S315080011E07F23EAE740F2FF33E7E700BF646B0008B6
S315080011F040D0035038B504784578ACB1012C16D0E8
S31508001200022C16D0032C03D13F23EB40DB0704D472
S315080012104FF48961084804F066FD302301225C43D7
S31508001220064BAA401A5138BD40F2FF73EDE77F23FB
S31508001230EBE740F2FF33E8E7646B000840F0035041
S3150800124070B5057804464678E5B1012D1DD0022D06
S315080012501DD0032D03D13F22F240D30704D44FF407
S3150800126083610C4804F03FFD1023302212FB05353C
S31508001270094BEB58F34003F00100A3780BB980F053
S31508001280010070BD40F2FF72E6E77F22E4E740F214
S31508001290FF32E1E7646B000830C0035070B50125E2
S315080012A004460B4E04B970BD94FAA4F0B0FA80F067
S315080012B005FA00F306EB001224EA03045368002B30
S315080012C0F0D0117B11B191689847EBE79847E9E7A9
S315080012D07411002008B51A2000F0CCFF28B14FF091
S315080012E08062074BC3F880211A601B2000F0C2FFFA
S315080012F028B14FF00062024BC3F880211A6008BD7E
S3150800130000E100E038B505460C4604F0DDFD002294
S31508001310044B03EB05135C601A73BDE8384004F010
S31508001320D9BD00BF74110020F8B505460F4616460C
S3150800133004F0CAFD104B05F0FC02D3F82414002370
S31508001340EC1804F00304144321FA04FC1CF0010F02
S3150800135007D00133042BF3D1FF2404F0BBFD20464C
S31508001360F8BDFF2CF9D00122044B03EB0413C3E9A3
S3150800137001761A73F1E700BF00C00350741100200C
S31508001380074BD3F82404D3F8202403F50053104060
S3150800139000F0553020F05020C3F82004FFF77EBF38
S315080013A000C00350074BD3F82404D3F8202403F5D0
S315080013B00053104000F0AA3020F0A020C3F8200403
S315080013C0FFF76CBF00C00350044BD3F88420D20645
S315080013D0FBD4D3F88400C0F3811070470040005056
S315080013E038B51A4B0546D3F820010C4600F007001D
S315080013F0062821D8DFE800F028040C1410181C0071
S31508001400FFF770FC052305B1286004B1236038BDD9
S31508001410FFF79EFC0323F6E7FFF7B4FC0723F2E782
S31508001420FFF7ACFC0223EEE7FFF75CFC0623EAE7CE
S31508001430FFF78EFC0423E6E7054841F2252104F070
S3150800144052FC00231846DEE70123DCE70080005043
S31508001450636C000838B5194B0546D3F828310C4695
S3150800146003F00703013B052B20D8DFE803F003133D
S315080014701B0F0B17FFF736FC052305B1286004B1CF
S31508001480236038BDFFF72EFC0623F6E7FFF77AFC44
S315080014900723F2E7FFF75CFC0323EEE7FFF758FCA8
S315080014A00423EAE7FFF76AFC0223E6E7044841F269
S315080014B02D0104F018FC00231846DEE700800050D2
S315080014C0636C0008F7B50027144B0197D3F88041E1
S315080014D0064604F00304022C0D4614D0032C0DD046
S315080014E0012C14D1394601A8FFF77AFF0F240EB153
S315080014F0019B336005B12C6003B0F0BDFFF742FCD9
S3150800150007240190F3E7FFF739FC0190EFE741F272
S315080015107A31034804F0E7FB3C46E8E700800050D0
S31508001520636C000838B50F4B0546D3F890320C4665
S3150800153003F00303012B09D0022B0BD1FFF722FC82
S31508001540072305B1286004B1236038BDFFF716FCF0
S315080015500223F6E7044841F2191104F0C4FB0023FC
S315080015601846EEE700800050636C000837B5002384
S315080015700193194B0546D3F820320C4603F00703AE
S31508001580042B1FD8DFE803F025030F1419000021E8
S3150800159001A8FFF75FFF11230DB1019A2A6004B174
S315080015A0236003B030BDFFF7EDFB07230190F3E797
S315080015B004F093FB0A230190EEE7FFF725FC0923C5
S315080015C00190E9E740F6EC71044804F08CFB00232F
S315080015D0E2E70123E0E700BF00800050636C0008E3
S315080015E038B5104B0546D3F840310C4603F00303D3
S315080015F0022B0BD0032B0DD0012B0FD104F06DFB62
S315080016000A2305B1286004B1236038BDFFF7FCFB47
S315080016100923F6E704F064FB0B23F2E70123002015
S31508001620EFE700BF0080005037B500230193184B41
S315080016300546D3F860320C4603F00703013B032B3B
S315080016401FD8DFE803F0020E1914002101A8FFF7DE
S31508001650C7FE0F230DB1019A2A6004B1236003B0B7
S3150800166030BD002101A8FFF7BBFF1023F2E7FFF703
S3150800167089FB07230190EDE7FFF780FB0223019022
S31508001680E8E741F29101034804F02DFB0023E1E766
S3150800169000800050636C000873B500240F4B01945A
S315080016A0D3F87032064603F00303012B0D4607D024
S315080016B0022B11D041F2EF01094804F014FB04E0B3
S315080016C0214601A8FFF78CFF10240EB1019B336059
S315080016D005B12C6002B070BD1424F6E700800050F6
S315080016E0636C000838B5164B0546D3F800020C465D
S315080016F000F00700042819D8DFE800F020030B0FD4
S31508001700130004F0EAFA0A2305B1286004B123603D
S3150800171038BDFFF779FB0923F6E704F0E1FA0B2356
S31508001720F2E7FFF7FFFA0E23800AEDE7054841F2D4
S31508001730384104F0D8FA00231846E5E70123E3E721
S3150800174000800050636C000838B5164B0546D3F880
S3150800175008020C4600F00700042819D8DFE800F054
S3150800176020030B0F130004F0B8FA0A2305B128600A
S3150800177004B1236038BDFFF747FB0923F6E704F0F9
S31508001780AFFA0B23F2E7FFF7CDFA0E23800AEDE74F
S31508001790054841F2704104F0A6FA00231846E5E729
S315080017A00123E3E700800050636C000838B5104B4E
S315080017B00546D3F840320C4603F00303022B0BD040
S315080017C0032B0DD0012B0FD104F087FA0A2305B19C
S315080017D0286004B1236038BDFFF716FB0923F6E736
S315080017E004F07EFA0B23F2E701230020EFE700BF9F
S315080017F00080005038B5124B0546D3F850320C46D7
S3150800180003F00303022B0FD0032B05D0012B0FD1B6
S3150800181004F063FA0A2302E004F062FA0B2305B126
S31508001820286004B1236038BDFFF7EEFA0923F6E70E
S31508001830044841F25D0104F056FA00231846EEE723
S3150800184000800050636C000838B5104B0546D3F885
S3150800185060310C4603F00303022B0BD0032B0DD08B
S31508001860012B0FD104F039FA0A2305B1286004B117
S31508001870236038BDFFF7C8FA0923F6E704F030FA03
S315080018800B23F2E701230020EFE700BF008000509A
S3150800189010B5B0F5207F34D009D8B0F5007F2AD02E
S315080018A003D898B1B0F5C07F10D0002421E0B0F578
S315080018B0607FFAD1154BD3F88030C3F301149B0629
S315080018C017D5032C15D040F285210FE00F4B1C6F5E
S315080018D0230B13F00E0FC4F303340AD0032C08D0DD
S315080018E0072C06D00F2C04D040F27521084804F0C6
S315080018F0FAF9601C10BD054BD3F89040C4F3046494
S31508001900F7E7024B1C6FC4F38024F2E7008000500F
S31508001910636C000838B54FF48032104B04469A665B
S3150800192000200D46FFF7B4FF41F671320C4B6043B9
S31508001930DC69DA635A6804F4803422F440125DB92B
S31508001940084988428CBF4FF4801000201043586025
S315080019500CB10022DA6338BD0349F2E70090005063
S3150800196000000350005A6202002D310170B5440987
S3150800197005460E460ED14FF447710F4804F0B3F9E9
S3150800198005F01F05AEB104F58053012000FA05F5F0
S315080019901D6070BD012C08D0022C08D040F22631FB
S315080019A0054804F0A0F90024EAE7044CE8E7044CEB
S315080019B0E6E704F50053E8E7636C00086480005026
S315080019C06880005030B585B00021B0F5807F0446A8
S315080019D0019100F0FE806BD8002800F0DA80A0F1B3
S315080019E02004602C74D8602C72D8DFE814F0D2007A
S315080019F0D500D200D500E800E800E800E800E800D5
S31508001A00D500ED007D0003019D007D00D500D500C1
S31508001A10D5007100710071007100710071007100CC
S31508001A200301D500D500D5001B010801D5007100BA
S31508001A307100710071007100710071007100710010
S31508001A407100710071000D01E800D200D200D200C9
S31508001A50B0007D007D00B80012019200C700C700E3
S31508001A6071007100710071007100710071007100E0
S31508001A7071007100710071007100710071007100D0
S31508001A8071007100710071007100710071007100C0
S31508001A9071007100710071007100710071007100B0
S31508001AA07100710071007100710071007100CC0045
S31508001AB0B0F5E06F00F0A3803BD8B0F5607F75D035
S31508001AC01DD8B0F5007F71D008D8B0F5C07F60D0BA
S31508001AD040F27941564804F006F957E0B0F5207F00
S31508001AE05AD0B0F5407FF3D1FFF71CF904464FF4FE
S31508001AF02070FFF7CDFEB4FBF0F0400845E0B0F5E6
S31508001B00B06F61D00AD8B0F5806F58D0B0F5A06F25
S31508001B10DED1002101A8FFF729FD37E0B0F5C06F37
S31508001B2068D0B0F5D06FD3D1002101A8FFF7DAFD50
S31508001B302CE0B0F5286F6CD016D8B0F5186F63D0C6
S31508001B400AD8B0F5F06F6DD0B0F5106FC0D100218E
S31508001B5001A8FFF7F9FD19E0B0F5206FB8D100210B
S31508001B6001A8FFF761FD11E0B0F5306F56D0AFD38D
S31508001B70B0F5386F3ED0B0F5406FA9D1002101A865
S31508001B80FFF768FC02E0FFF7B3F80190019805B08B
S31508001B9030BDFFF7C7F8F8E7FFF7C4F804464FF477
S31508001BA02070FFF775FEB4FBF0F0EEE7FFF7A0F83C
S31508001BB005462046FFF76CFEB5FBF0F0E5E7002189
S31508001BC001A8FFF70DFCE1E7002101A8FFF77AFC61
S31508001BD0DCE74FF0E02302911B695B0705D5FFF7A9
S31508001BE0A1F80290029B0193D0E703A902A8FFF788
S31508001BF0F7FCF7E7002101A8FFF7F2FCC6E700218A
S31508001C0001A8FFF7D3FDC1E7002101A8FFF7F2FD00
S31508001C10BCE7002101A8FFF73FFDB7E701A8FFF7DA
S31508001C2081FCB3E7002101A8FFF70EFEAEE700BF6F
S31508001C30636C000808B58020FFF7C4FE034B984282
S31508001C409EBF4FF48032024B1A6708BD005A6202E3
S31508001C5000A000501FB50023B0F5807F019300F067
S31508001C60D68076D8582867D8382805D82438092839
S31508001C7048D940F25A51BEE039381F28F9D801A38D
S31508001C8053F820F0311E0008731C0008731C000866
S31508001C90731C00083B1E0008811E0008731C000800
S31508001CA0731C0008731C0008731C0008731C0008CA
S31508001CB0731C0008731C0008731C0008731C0008BA
S31508001CC0731C0008731C0008731C0008731C0008AA
S31508001CD08B1E0008791D0008731C0008731C000879
S31508001CE0731C0008BD1D0008731C0008731C00083F
S31508001CF0951E00089F1E0008771E0008DF1D0008B5
S31508001D00DF1D00080928B4D801A353F820F000BF46
S31508001D10791D0008791D0008791D0008791D00083D
S31508001D20791D0008731C0008FF1D0008731C0008B5
S31508001D30311E0008971D000880289AD15D4B1B6F3D
S31508001D4003F00703013B032B53D8DFE803F0504D9C
S31508001D508890B0F5086F75D022D8B0F5C06F67D0F7
S31508001D600FD8B0F5A06F00F08680B0F5B06F46D0FA
S31508001D70B0F5806F7FF47DAF002001A9FFF730FB37
S31508001D8041E0B0F5E06F7BD0B0F5F06F55D0B0F517
S31508001D90D06F7FF46EAF002001A9FFF7A3FC32E0F5
S31508001DA0B0F5286F7BD00ED8B0F5186F6DD0B0F5AA
S31508001DB0206F6FD0B0F5106F7FF45BAF002001A9DC
S31508001DC0FFF7C2FC1FE0B0F5306F6DD0FFF451AFDE
S31508001DD0B0F5386F2CD0B0F5406F7FF44AAF0020CD
S31508001DE001A9FFF737FB0EE0052301930BE0022359
S31508001DF0FBE740F2AB41304803F075FF03E00020F3
S31508001E0001A9FFF75FFB019805B05DF804FB029393
S31508001E104FF0E0231B695B0705D5FEF783FF0C230C
S31508001E200393039BE1E703A902A8FFF7D9FBF8E7A9
S31508001E30002001A9FFF7D4FBE5E7002001A9FFF779
S31508001E4003FDE0E71B4BD3F8003103F00303022B35
S31508001E5007D0032B09D0012B0BD1FEF779FF0323FB
S31508001E60C3E7FEF7D1FF0923BFE703F034FF0823D2
S31508001E70BBE70123B9E7002001A9FFF777FBC2E713
S31508001E80002001A9FFF792FCBDE7002001A9FFF792
S31508001E90B1FCB8E7002001A9FFF7C6FBB3E70020AD
S31508001EA001A9FFF7F9FBAEE7184601A9FFF73AFBC8
S31508001EB0A9E700BF00800050636C00084FF4801249
S31508001EC0034B5A664FF48032024B9A62704700BF42
S31508001ED0009000500050005A70B5036804460F2B56
S31508001EE004D940F64631814803F0FDFE63680F2B9E
S31508001EF004D940F649317D4803F0F5FEA3680F2B57
S31508001F0004D940F64C31794803F0EDFE237B0F2BBC
S31508001F1004D940F64F31754803F0E5FE637B0F2B75
S31508001F2004D940F65231714803F0DDFEA37B3F2BFE
S31508001F3004D940F655316D4803F0D5FEE37B3F2BB7
S31508001F4004D940F65831694803F0CDFE2369032BBE
S31508001F5004D940F65B31654803F0C5FE6369032B77
S31508001F6004D940F65E31614803F0BDFEE369032BF0
S31508001F7004D940F661315D4803F0B5FE8020FFF7CD
S31508001F8069FE032800F091804FF48012584B594D92
S31508001F905A6645F60E034FF0A062C5F88030564BD8
S31508001FA09A624FF4803203F580539A62AB6DDA0376
S31508001FB0FCD4AE6D16F08046FBD1D4E900231B0590
S31508001FC043EA0263E27B4D481343227B43EA02431A
S31508001FD0627B43EA0233A27B43EA82132B61AA6936
S31508001FE0D4E904131B0643EA816302F00042134353
S31508001FF0A27E4FF440611343227E43EA0243627E87
S3150800200043EA0223AB614FF4006203F01DFFE16966
S315080020102B6A00290CBF00220822E07E23F00F035A
S3150800202043EA010343EA800343EA0203314A344D93
S3150800203013623BD194F82430916A94F82000DB00AF
S315080020400D4043EA401394F821102B4343EA011349
S3150800205043F4803393622B4B916D33EA0101FBD134
S315080020604FF08071244881621369A56823F47003D0
S3150800207043EA055313614FF00043836194F8223015
S315080020800BB9214B996294F823303BB94FF480324F
S315080020901D4B9A62174A936D5B00FCD494F8253061
S315080020A01BB1144B194AC3F8802070BD022908D108
S315080020B016614FF47F41966115484FF4085203F0B4
S315080020C0C3FE0C4994F822308A6A94F820001B064D
S315080020D0154043EA401394F824202B4343EAC203ED
S315080020E094F8232043EA02438B62D7E7636C00081F
S315080020F0009000500040005A0050005A3840005ADC
S31508002100C7FFFEFE030001000060005AF1A7FFFFAB
S315080021103440005A014B93F900007047D410002050
S31508002120014B1880704700BFCC10002010B5B0F5E1
S31508002130207F65D00ED8B0F5007F4FD003D800B306
S31508002140B0F5C07F1DD040F2FF21BDE810403448ED
S3150800215003F0C9BDB0F5607FF5D14C1E012C06D938
S31508002160042904D040F2E2212D4803F0BCFD2D4A93
S31508002170D2F8803023F0300343EA0413C2F88030E3
S3150800218010BD102901F1FF3404D8274B23FA01F1B9
S31508002190CB0704D440F2B621214803F0A4FD03F08E
S315080021A064FE03F070FE4FF48031204B1D4A196718
S315080021B0136F23F4704343EA04331367FEF7B2FD43
S315080021C00446FFF701F9C0F10201204603F055FE67
S315080021D000F03EF8BDE81040FFF72CBD4C1E1F2C42
S315080021E004D940F2F3210E4803F07DFD0D4BD3F8D8
S315080021F0901021F0F85141EA0461C3F89010BFE746
S315080022004C1E012C04D940F2F921054803F06BFD58
S31508002210044B196F21F4806141EA84211967AFE7FD
S31508002220636C000800800050160101000090005001
S3150800223008B50121022000F049F803F016FE03F064
S3150800224022FE4FF48032014B1A6708BD00900050F9
S3150800225008B54FF4C070FFF7B5FBBDE80840044960
S3150800226088428CBF022101214FF42070FFF75EBF20
S3150800227080F0FA0238B5C5B24B2D044604D940F2AF
S315080022801631074803F02FFD064B640953F824005E
S3150800229005F01F05E840C04300F0010038BD00BF47
S315080022A0AE6C000800E100E0024A536B0342FCD121
S315080022B0704700BF00400950034A0179D36E23F0E6
S315080022C030030B43D3667047004000502DE9F041B8
S315080022D00446264BD3F88420D006FBD4D3F88430A2
S315080022E0C3F381139C423ED0FEF702FD012C05463E
S315080022F00BD11F4B984204D940F247711D4803F091
S31508002300F2FC0121284603F0B8FD03F0D6FD4FF094
S315080023100072194B07465A66204603F0DEFD4FF455
S315080023208063124E621E9340DFF848803367736EEF
S315080023309A0103D4D6F884309B060AD5384603F0AA
S31508002340C0FD022C0FD12846BDE8F041002103F05C
S3150800235094BDD6F884309906E9D540F255714046C1
S3150800236003F0C1FCE3E7BDE8F08100BF0040005080
S31508002370005A6202FA6C00080060005007B518B9E6
S315080023800191FEF7B5FC0199064B1B7843B1064B44
S31508002390984205D8012003B05DF804EBFFF796BF15
S315080023A00220F8E7781F0020005A620238B54FF07D
S315080023B00042284B28495A664AF6CD334D6C0446E6
S315080023C005F001050B6460BB0120FFF76DFF4B6844
S315080023D0DA0708D4002415B11F4B204A1A6403F003
S315080023E07DFD204638BD1E4B586020461D4C0B6BA4
S315080023F0DB0706D4A04202D14FF0FF34EBE70130E9
S31508002400F5E7A0424FF0FF3418BF0024E3E7013296
S315080024100B6B13F0080307D08242F8D16FF0010462
S31508002420D9E700220F48F3E78242F7D020210C4A69
S3150800243091620121A2F5805251600749094A886ACA
S31508002440800603D49342E9D00133F8E79342C1D119
S31508002450E4E700BF00900050004009503254FFFFE7
S315080024600060095040420F0038B54FF00042164B45
S3150800247001465A664AF6CD33144C154A656C2364F0
S3150800248043780B205B0043F00103D363FFF70CFF8F
S3150800249063688A7823F4F87343EA02136360CA7898
S315080024A04B7943EA0223A3600A798B7943EA02232C
S315080024B023610878FFF77AFFEB0744BF054B2364CF
S315080024C003F00CFD012038BD009000500040095073
S315080024D0004000503254FFFF70B50F28044604D957
S315080024E040F6E351134803F0FEFB4FF00042124B4F
S315080024F012495D6E03F580535A664AF6CD334E6C23
S3150800250080200B64FFF7D0FE0B6A23F00F030F2C15
S3150800251094BF234343F00F030B62F30744BF084BF2
S315080025200B64002DA2BF4FF00042064B5A6603F01B
S31508002530D5FC70BDFA6C00080080005000400950B8
S315080025403254FFFF00A0005070B51F2904460D46FF
S31508002550164603D99121074803F0C5FB36B104F5A1
S315080025608054012101FA05F5256070BD04F5005473
S31508002570F7E700BF456D000838B50D460446B0B10B
S31508002580012817D0022817D0032803D13F23EB4090
S31508002590DB0704D440F22D41094803F0A4FB3020A0
S315080025A001214443074B01FA05F51D5138BD40F298
S315080025B0FF73ECE77F23EAE740F2FF33E7E700BF64
S315080025C0646B000840D0035038B50D460446B0B1D8
S315080025D0012817D0022817D0032803D13F23EB4040
S315080025E0DB0704D440F2FE31094803F07CFB3020B7
S315080025F001214443074B01FA05F51D5138BD40F248
S31508002600FF73ECE77F23EAE740F2FF33E7E700BF13
S31508002610646B000840E003502DE9F3470D46144665
S315080026201E4681469DF828809DF82C70002843D0C8
S31508002630012844D0022844D0032803D13F23EB4085
S31508002640DB0703D4BF21294803F04DFB85EA0403C1
S3150800265033F0030303D0C121244803F044FB072CBD
S315080026604FF0030105F003052ED84FEA840A01FA54
S315080026700AF11F4809FA0AF2019103F030FC0199A0
S315080026801C4805FA0AF203F02AFC324621461A4883
S31508002690FFF75AFF424621461848FFF755FF012320
S315080026A0174AA340C2F8203421463A46154802B0D4
S315080026B0BDE8F047FFF748BF40F2FF73BFE77F2347
S315080026C0BDE740F2FF33BAE7A4F1080A4FEA8A0ADF
S315080026D001FA0AF10C4809FA0AF2019103F0FFFB24
S315080026E001990A4805FA0AF2CDE700BF906D00087D
S315080026F000C4035008C4035010C4035014C4035044
S3150800270000E0035024C4035004C403500CC403500F
S315080027102DE9F0410D46174698460446002835D05F
S31508002720012836D0022836D0032803D13F23EB40B0
S31508002730DB0704D44FF4B0711D4803F0D4FA37B15F
S3150800274029462046B8F1000F28D0FFF715FF0F21BC
S31508002750072D04EB440688BFA5F108034FEA0616C1
S31508002760144895BFAB009B0004360C3607FA03F2F3
S315080027709940304403F0B3FBBFB929462046B8F167
S31508002780000F0ED0BDE8F041FFF7F6BE40F2FF732A
S31508002790CDE77F23CBE740F2FF33C8E7FFF714FF07
S315080027A0D5E7BDE8F041FFF70FBFBDE8F08100BFF0
S315080027B0906D000830C00350F8B506460C4615461D
S315080027C09ABB40F20F11BDE8F8402F4803F08BBAC8
S315080027D02E4B9E4201D12F203DE040F229112A4876
S315080027E003F081FA3AE0032F42D0294B3CE06FEA26
S315080027F0C50505442C44B4FBF0F4013C0AD540F267
S315080028007511214803F06FFA4FF4BB711E4803F0A7
S315080028106AFA02E0B4F5007FF6D2B3689B0702D5E0
S31508002820002C08BF0124B461F8BD03F003078368D0
S3150800283023F44073836003F040FBB26882EA0723FF
S3150800284003F440735340B36003F03BFB34B9B6F16D
S31508002850B64FBDD12E20FFF7B5F80446B3689A07E0
S31508002860C1D5032F04D00B4B53F827309C4204D80C
S315080028704FF4AF71044803F036FA074BD85D684346
S31508002880B5D140F26F119EE7DC6D00080080065056
S31508002890346E0008286E0008406E000838B5B0F19E
S315080028A0B64F04460D4607D0084B984204D040F26E
S315080028B08F11074803F017FA043425B104F580543C
S315080028C00123236038BD04F50054F9E7008006505B
S315080028D0DC6D000838B5B0F1B64F04460D4607D092
S315080028E0124B984204D04FF4D271114803F0FBF909
S315080028F00023104A236404F50053DA636A7804F166
S3150800290008037AB903F5805302221A602046D5E9EE
S3150800291001122B7BFFF750FF20462978BDE8384087
S31508002920FFF7BCBF03F50053EEE700BF0080065073
S31508002930DC6D0008FFFF1F002DE9F843B0F1B64F24
S315080029400BD0884B984226D0874840F2FB1103F0FB
S31508002950CAF96FF00300BDE8F883844B40250526C5
S315080029604FF000084FF0030C996800F50054C26B4D
S3150800297012F4C06F15D097050FD5FD225A7009229B
S315080029801A700022026493F90110012900D15A70C5
S3150800299093F90100DFE7764BE0E75605EFD5FE220F
S315080029A0ECE71F78082F00F2D880DFE817F0090057
S315080029B01F0041004C006900740096009E00CD007F
S315080029C04C880A88E5060AD5120A02F0060242F081
S315080029D0F002012119704263C1600120BBE702F0D1
S315080029E0FE02A10748BF42F00102F2E7170607D523
S315080029F0802100F50052D1634FF608721A8062E012
S31508002A005206EAD54A88E563D70604D502221A7023
S31508002A100B784363E1E7920765D507221A701B799D
S31508002A2001EBC3010B89012BD7D10823C360D4E777
S31508002A301706DDD45206D0D54A88E563970752D5DE
S31508002A4083F800C093E74C880A88E50643BF120A54
S31508002A5002F0060242F0F00202F0FE02640709D50F
S31508002A601C7942F0010201EBC4010989012904BF5E
S31508002A700821C160042119700123C3604263ACE7D1
S31508002A801706B5D45706A8D54A88E56352072AD546
S31508002A9007221A70A1E71A795F8801EBC20EBEF801
S31508002AA00890B94511D80132D2B21A714F88A3F8E5
S31508002AB0028017F0040FC3D1FF0702D4012A7FF65C
S31508002AC056AF08221A700223B0E7DEF80420791CF4
S31508002AD05980D25D42630622DBE7170688D457067B
S31508002AE07FF57BAFE5631E7041E794067FF575AF0A
S31508002AF0456A204C46691A793440B4F5003F04BF4C
S31508002B00466A4FF4005601EBC20100F500540A89E3
S31508002B1008BFE6632026E6635C88A24281BF49684F
S31508002B20661C5E800D5559888A42CAD90424012A32
S31508002B30C46004D9013A914201D10822C2601A78C8
S31508002B40092A3FF41EAF48E7D2057FF546AF4FF492
S31508002B50807100F50052D16311E74FF609321A80E9
S31508002B600FE700BF00800650DC6D000874130020D4
S31508002B70801300202000020038B5B0F1B64F044695
S31508002B800D4644D0254B98423ED040F25E3124484B
S31508002B9003F0A9F8002D3DD140F25F31204803F03B
S31508002BA0A2F8B4F1B64F28D11E4B2269D00744BF0C
S31508002BB02022E2606A88910701D5298951B3520714
S31508002BC001D52A8A32B34FF480721A6000229D60BA
S31508002BD01A71C023E3606369DB0513D4202204F568
S31508002BE00053DA63104A2046DA63236C43F4FC6325
S31508002BF02364BDE83840FFF79FBE084B9C4209D1C5
S31508002C000A4BD2E7636AE6E70029F9D1C4E7002947
S31508002C10CAD1C1E76FF0030038BD00BF0080065077
S31508002C20DC6D000874130020FFFF1F0080130020CE
S31508002C3008B5242815D820280AD8012819D00C2820
S31508002C4019D068B10E48B62103F04DF8002007E008
S31508002C502238022803D8DFE800F010080A0001200D
S31508002C6008BD3228EED10620FAE70420F8E7052049
S31508002C70F6E70320F4E70720F2E70220F0E700BFB3
S31508002C80446E000810B50C280C4617D003D8012846
S31508002C900FD0204610BD242808D82028F9D9042C9E
S31508002CA0F7D9F6210B4803F01EF8F2E73228F6D0DA
S31508002CB0EFE70229EDD940F20711F3E7022904D01C
S31508002CC0032904D04FF48B71ECE70024E1E70124D3
S31508002CD0DFE700BF446E0008F8B50546C2F30627CD
S31508002CE002F0070479B90B2804D94FF4FC7111488E
S31508002CF002F0F9FF104B44EA072444F44024063551
S31508002D0043F82540F8BD032804D940F2FD110948C7
S31508002D1002F0E9FF21463846FFF7B4FF0646384673
S31508002D20FFF786FF044B46EA0020123543F82500D4
S31508002D30E8E700BF446E00080080035070B5B2F59E
S31508002D40805F05460E4614460DD34FF40B710848AE
S31508002D5002F0C9FF24F0030202F1A04202F5603234
S31508002D6026B9156001E0002AF4D170BD2D02F8E7F6
S31508002D70446E000870B506460C46154622B940F260
S31508002D808E210C4802F0AFFF24B94FF42070FEF7ED
S31508002D9019FE04466D00013CB4FBF5F4064B25020A
S31508002DA013EA042304D040F2B321024802F09BFF41
S31508002DB0F56170BD8F6E0008070080FF10B5124BD5
S31508002DC00446984204D040F24241104802F08BFF74
S31508002DD0012104F58053596040F6AA6341F20502C1
S31508002DE0636100230A48A360E365E26004F50052C4
S31508002DF02361E361E36490640348A365844204BFE6
S31508002E0023656365516010BD00C005508F6E0008CC
S31508002E10FFFF010038B52D4B044698420D4604D0F5
S31508002E2040F269312A4802F05EFF2046FFF7C6FFE6
S31508002E300122A97B04F580535A602A8AA3680029CF
S31508002E4014BF4FF48061002142F0010213432A7D2A
S31508002E500B43002A14BF4FF000520022A360A36858
S31508002E601343A360AB7C5BB1184B9C4202BFEA7C60
S31508002E70A3F51033C3F8D421E36D43F08003E3656B
S31508002E802B7B2046D5E9011243F48053E360FFF714
S31508002E9071FF6B7B0BB1102363616B7D1BB1A3685C
S31508002EA043F48033A360AB7D1BB1A36843F40043AE
S31508002EB0A360EB7D2A7E1B07120503F0E04302F4AC
S31508002EC0E0021343A3652B78636138BD00C0055043
S31508002ED08F6E00080123064A411100F01F0003FA0D
S31508002EE000F052F82130184342F82100704700BF1D
S31508002EF08C130020044B1B681BB1044B0360002095
S31508002F0070470120704700BF9C130020681F0020EF
S31508002F1070B50D4C246884B10C4C85182688B542CA
S31508002F200DDC6688CD18B54209DC52B14BB1A080DC
S31508002F300020E1802281638170BD0120FCE7042026
S31508002F40FAE70520F8E700BF9C130020681F002059
S31508002F502DE9F74F0093444B1B68002B7FD04FF0A9
S31508002F60010BDFF80C910D9FB9F80630B9F80A2065
S31508002F705D181A441FFA82FAADB21FB9384603B073
S31508002F80BDE8F08FABB29A456BD9384AB9F8084014
S31508002F9002EB0511241A009ABC4228BF3C46161EAD
S31508002FA018BF0126B9F8043076420344072CA7EB6C
S31508002FB004079BB2F6B221D81C44BEB9A34217D265
S31508002FC0DE0803F007020BFA02F08A5D013322EAF3
S31508002FD000028A559BB2F1E7D8080E5C03F0070297
S31508002FE00BFA02F2324301330A549BB2A342F3D3DB
S31508002FF02846FFF76FFF01350020BEE74FEAD30CDE
S3150800300001EBD30813F0070310D00BFA03F211F8FB
S315080030100CE0D2B2501E52420EEA00003240104373
S31508003020083B01F80C0008F101081C44E20809D025
S3150800303031464046019203F061FB14F00704019AF9
S31508003040D6D090440BFA04F498F80030E4B2624201
S31508003050013C134034401C4388F80040C8E7012768
S315080030608CE704278AE700BF9C130020791F0020FD
S31508003070681F002037B5124D2B68FBB9FDF722FDF6
S31508003080044618B10124204603B030BDFDF70EFDF5
S3150800309028600028F6D0028841880A4B20461A8004
S315080030A01A814A4359809C80DC805981CDE90042C7
S315080030B0234622462146FFF74BFFE4E70024E2E7D2
S315080030C09C130020681F00202DE9F84300230125E2
S315080030D01A461A4FDFF86C803C68DFF86490D8F817
S315080030E00000D61841888E4207D3FBB9102200216A
S315080030F0124803F003FB002012E0E10708D501336C
S31508003100D118C9060ABF57F8254064080135E6E70D
S3150800311053B109EB0211FDF76DFC034610B1072008
S31508003120BDE8F883721CEBE70132E9E7044901EBD5
S315080031300211FDF75FFC0028D8D0F0E78C130020B9
S31508003140791F00209C13002030B587B0054600B3D0
S3150800315000226FF07F43C0E9012301A8FFF7CAFEEA
S31508003160044698B9019BCDE902001A882B605B8852
S31508003170013A013B284602A90492059302F010FF82
S31508003180044618B92846044903F043F8204607B010
S3150800319030BD0524FAE700BF0C720008054B9A6893
S315080031A09107FCD45A689207F9D4DA69002AF6D14D
S315080031B0704700BF00800A5008B5FFF7EFFF0122ED
S315080031C0024B03F580514A601A6108BD00800A5017
S315080031D0074B5A68012A0AD15A68D20702D5DA6912
S315080031E0002AF9D102221A610122024B5A6070475D
S315080031F000800A5000A00A5010B5064CFFF7CEFF13
S315080032006368012B03D1FFF7E3FFFFF7C7FF0378D6
S31508003210E36010BD00800A5018B17121104802F011
S3150800322062BD4A680B7812B1127843EAC2034A783B
S31508003230002A14BF0222002213438A6812B11278A8
S3150800324043EA82138A78002A14BF04220022134311
S31508003250CA6812B1127843EA4223024A9364704755
S315080032603C75000800800A5020B14FF4827103486B
S3150800327002F039BD024B5964704700BF3C7500081F
S3150800328000900A5020B14FF4A071034802F02BBDFC
S31508003290024B5964704700BF3C75000800A00A50ED
S315080032A020B14FF4BE71034802F01DBD024B1964EC
S315080032B0704700BF3C75000800A00A5008B530B139
S315080032C0044840F2B71102F00EFD002008BD024B7B
S315080032D0186CFBE73C75000800800A5008B548B131
S315080032E0084840F2662102F0FEFC002008BD064BA5
S315080032F0D86CFBE70029FAD00129F7D1024B186DE3
S31508003300F4E700BF3C75000800800A5050B14FF43E
S315080033104171074802F0E7BC064BDA647047054B73
S315080033201A6570470029F7D00129F8D0704700BF01
S315080033303C75000800800A5007B5094B18689A883A
S315080033409B7900906846ADF804208DF80630FFF7A3
S315080033508BF80920FFF7C0F8002003B05DF804FBDE
S315080033609775000813B50024064A6846536F43F05C
S315080033700103536700948DF80440FEF79DFF20462D
S3150800338002B010BD0040005030B58BB06C46174DEA
S315080033900FCD0FC40FCD0FC495E8030084E80300D2
S315080033A0134BD3F84C21120318D4D3F85041E4B286
S315080033B08DF81940FEF7AEFE204480F308008DF81C
S315080033C018000C48FDF7CAFC6846FEF785FD4FF461
S315080033D0FA70FEF7A5FE00200BB030BD064B1C8820
S315080033E04FF6FF739C4208BF8C24E1E7A0750008DE
S315080033F00080E00FC01753020001E00F10B56FF010
S31508003400040250210A480B4C12F0800FD3B21BBF9E
S3150800341003F00F03043BA3181B1802F101020CBFAB
S3150800342083F8001319764C2AEED1002010BD00BF90
S3150800343000ED00E000E100E030B50F4C4161236883
S31508003440ABB92060836011E0891A9A681D4641610C
S315080034502AB113465A698A42F6D955B11A4613460D
S31508003460A860836013B15A69511A596130BD0025A5
S31508003470F0E72060F5E700BFAC13002010B500F0B8
S3150800348059FA0A4C0A4B19682368C31A01B10BB9D1
S31508003490206010BD4A699A423ABF9B1A0022D21A86
S315080034A04A6128BF00238968F0E700BFA0130020FF
S315080034B0AC13002038B5134D2B685B6993B1124ADB
S315080034C0022014681C4402F029FF204600F062FA24
S315080034D000230E492A680B70D088800709D5012376
S315080034E00B7038BD022002F019FF022000F0A0FA86
S315080034F0EEE79268002AF4D050690344012BEBD911
S31508003500EFE700BFAC130020A01300207A270020A5
S31508003510F8B516469DF81C20BDF820700271069A6B
S315080035200446026000220D46C0E903368260C78061
S31508003530C6B900F0FFF92844A0613DB9E3686561A2
S3150800354013B120462168984756B13546062F0DD146
S31508003550104A2846936A43F00803936200F0F2F98A
S315080035600020F8BD00F0E6F93044E5E702F0A5FCD6
S315080035700646FFF783FF29462046FFF75DFF064B01
S315080035801B68A34201D1FFF795FF304602F099FC6C
S31508003590E6E700BF0040005AAC13002000220C49A1
S315080035A00B687BB183420AD183687AB193608368DA
S315080035B01BB15A6941690A445A61002070471A4684
S315080035C09B68EEE70028EFD0022070470B60EEE715
S315080035D0AC13002070B502F077FC144E054634781B
S315080035E0FCB9134B1C60134B1C60134B1C8000F07A
S315080035F059F9012002F092FE02F0B3FE0F4B024683
S31508003600186020B9284602F065FC232070BD2346C1
S3150800361040F2E7310A4801F04DFD0A4B18600123D4
S315080036203370284602F056FC0020EFE77927002081
S31508003630AC130020A0130020741F0020A81300203C
S3150800364018FCFFFFA41300202DE9F0410546F8B148
S3150800365002F033FC0F4F0646FFF710FF2846D7F84F
S315080036600080FFF79BFF044628B1304602F029FC8C
S315080036702046BDE8F081A8453B6803D123B1FFF792
S3150800368019FFF2E7002BF0D1022000F0BBF9ECE7B6
S315080036902224EDE7AC13002038B50C46054698B150
S315080036A091B100230B7002F00FFC0121074B1B6838
S315080036B00BB122781AB102F00DFC002038BDAB42DE
S315080036C014BF9B682170F3E72220F7E7AC130020AC
S315080036D0014B1868704700BFA813002038B540F2A0
S315080036E0E7340021054B4FF47A721D680023E5FB89
S315080036F00041204601F0DEFC38BD00BFA8130020BB
S3150800370000B58DB001238DF80F30FFF7E7FF0023D2
S315080037100146CDE90033074A0DF10F0304A802F06C
S31508003720D5FD18B99DF80F30002BFBD10DB05DF80B
S3150800373004FB00BF8F6200082DE9F84FC207044654
S315080037400BD54F4A138801339BB21380FFF796FEB9
S315080037504C4B1B680BB1FFF7ADFEA30740F18E80FB
S3150800376002F0B2FB4FF0000A05465646FFF786FE02
S31508003770D046444FDFF814913C680CB163698BB1AD
S315080037800022414B012E1A7003D11AF0020F18BFFE
S315080037901E70002C62D0FFF78DFE2846BDE8F84F54
S315080037A002F098BB23461A792179914288BF1C46B4
S315080037B09B6813B15A69002AF5D0284602F08AFB9D
S315080037C0D4F810A0BAF1000F4CD000F0B3F8A269F3
S315080037D0851AEB17AA4578EB030344DA23691344E1
S315080037E00122A36123691BB312BBEB17BAEB0505CC
S315080037F063EB4303002B04DA40F22151484602F0FA
S3150800380072FAA38B33B1E28B13449BB2B3F57A7F7A
S315080038101CD2E38302F058FB824629462046FFF76E
S315080038200BFEA369226950461344A36102F052FBBA
S31508003830E368B4F806A0013613B120462168984714
S3150800384002F042FB0546FFF719FE95E7A3F57A73E2
S31508003850E383A369013D013BA361DBE7022000F096
S31508003860D1F89AE7554602F02FFB83462046FFF724
S3150800387095FE584602F02EFB0022B3E7BDE8F88F06
S31508003880741F0020AC1300207B270020C875000891
S31508003890034B5A68D20702D5DA69002AF9D170476C
S315080038A000800A5030B587B0012500240423294634
S315080038B03E208DF80430CDE903448DF80040ADF87C
S315080038C008508DF80A400594FEF750F86846FFF749
S315080038D093FC01AB204602A90493ADF80840FFF714
S315080038E09BFC20460F21FFF7CDFC0F212046FFF752
S315080038F0D7FCFFF761FCFFF7CBFF40220B4B9C611F
S315080039000B4BC3F888219A603B202946FEF72EF810
S315080039102146284640F60172FFF7DEF94FF49C72FD
S3150800392021462846FFF70AFA07B030BD00800A503C
S3150800393000E100E008B5FFF7ABFF014B986908BD49
S3150800394000800A5038B5044602F0B7FA0546FFF774
S315080039509FFF0E4B022C9A694FF001018CBF12197A
S315080039600332B2F1FF3F38BF013A0020FFF7CEFC21
S31508003970284602F0A6FA064A137833B103498B6C37
S3150800398043F002038B640023137038BD00800A508D
S31508003990D5100020F8B5044602F08FFAFFF778FF35
S315080039A0164B07469D6902F0B5FC06460020FFF750
S315080039B085FC830704D4731B032B01D8AE420FD1B1
S315080039C00021631B022B98BFEC1C0846B4F1FF3F8D
S315080039D02CBF2246621EFFF799FC022002F09EFCCD
S315080039E0384602F06EFA064A137833B103498B6CEF
S315080039F043F001038B6400231370F8BD00800A505E
S31508003A00D6100020830700F0010109D50122064BD4
S31508003A1041F002011A70054A936C23F0010393647E
S31508003A200020FFF72FBC00BFD610002000800A50E8
S31508003A30830742BF0222014B1A64704700900A505E
S31508003A4010B50446FDF76EF94FF47A729042B0FB52
S31508003A50F2F105D23621BDE810400C4802F043B910
S31508003A600B4BB3FBF1F30B49884201D93C21F2E732
S31508003A7002FB04F0B0FBF3F0022806D9BDE81040BB
S31508003A800323B0FBF3F0FCF773BB10BD27760008E1
S31508003A9040420F00E7CD9A3BEFF3058373B9EFF386
S31508003AA01082094B12B9EFF3118212B11A68022A71
S31508003AB004D0186828B901221A6070476FF005000B
S31508003AC070474FF0FF3070478816002010B5EFF3A7
S31508003AD00583ABB9EFF310820C4B12B9EFF31182E1
S31508003AE012B11A68022A0BD01A68012A0BD10024CF
S31508003AF0074AD47702221A6000F010FC204610BD4F
S31508003B006FF00500FBE74FF0FF30F8E78816002056
S31508003B1000ED00E040F67411014802F0E4B800BF79
S31508003B207E760008034B0360034B0B60A0231360EB
S31508003B30704700BF30160020B0130020034B036007
S31508003B40034B0B60A0231360704700BF0C190020BD
S31508003B508C16002038B50D46044620B94FF48D71F1
S31508003B60164802F0C0F801F00DF9D4E90F314B43BD
S31508003B702268D0185B1A1344A060E3600020FF2374
S31508003B80A063626084F8443084F8453065B92369D7
S31508003B9033B104F1100000F00BFE08B102F072FD1B
S31508003BA001F0FEF8012038BD04F1100002F0F8FB20
S31508003BB004F1240002F0F4FBF2E700BFE076000807
S31508003BC0F7B50D4616461C46074620B940F255116C
S31508003BD0194802F088F824B940F25911164802F03B
S31508003BE082F826B325B940F25D11134802F07BF836
S31508003BF050230193019B502B04D04FF4B3710E4808
S31508003C0002F071F8019B7CB10121002D08BF264600
S31508003C102046C4E90F7584F846102660FFF79AFF18
S31508003C209DF8203084F84C30204603B0F0BD002DB6
S31508003C30DED04FF4AF71D8E7E0760008F8B50D4648
S31508003C401746064620B940F29311184802F04BF879
S31508003C5005FB06F485B1B4FBF5F3B34204D040F294
S31508003C609B11124802F03FF814F1510F04D94FF492
S31508003C70CF710E4802F037F804F1500001F03EF912
S31508003C80044670B1002380F8463065B100F1500350
S31508003C9001212046C4E90F652360FFF75BFF84F81E
S31508003CA04C702046F8BD0346F2E700BFE0760008F0
S31508003CB02DE9F04385B00F461E460446019220B909
S31508003CC040F21931444802F00EF837B9236C23B193
S31508003CD040F21A31404802F006F8022E07D1E36B8B
S31508003CE0012B04D040F21B313B4801F0FCFF00F0E9
S31508003CF0E9FD30B9019B23B140F21E31364801F087
S31508003D00F2FF4FF00008C14601F03CF8A26BE36BE6
S31508003D109A4201D3022E13D132463946204602F082
S31508003D208BFB636A1BB104F1240000F041FD08B166
S31508003D3002F0A8FC01F034F8012005B0BDE8F083D4
S31508003D40019D1DB901F02CF80020F6E7B8F1000F27
S31508003D5002D102A800F06EFD01F022F800F020FB67
S31508003D6001F010F894F84430FF2B08BF84F844900B
S31508003D7094F84530FF2B08BF84F8459001F010F8F9
S31508003D8001A902A800F062FDF8B900F0FBFFA26BDA
S31508003D90E36B9A420FD101F003F8019904F1100080
S31508003DA000F0CCFC204602F092FB00F09BFB48B9E1
S31508003DB002F068FC06E000F0F3FF204602F087FBFD
S31508003DC000F090FB4FF001089EE7204602F07FFBCB
S31508003DD000F088FBB8E700BFE07600082DE9F84355
S31508003DE0894690461F46044620B940F2ED312748D9
S31508003DF001F079FFB9F1000F06D1236C23B140F227
S31508003E00EE31224801F06FFF022F07D1E36B012B39
S31508003E1004D040F2EF311D4801F065FF02F04FFC77
S31508003E20A26BE36B06469A4201D3022F2CD194F873
S31508003E3045503A46494620466DB2A36B02F0FCFA55
S31508003E406B1C15D1636A0BB901240BE004F124003D
S31508003E5000F0AEFC0028F7D0B8F1000FF4D001242A
S31508003E60C8F80040304602F035FC2046BDE8F88325
S31508003E707F2D04D14FF48F61044801F034FF0135DA
S31508003E806DB284F84550DFE70024EBE7E0760008DA
S31508003E902DE9FF410E460446019220B940F23C51F5
S31508003EA03B4801F020FF36B9236C23B14FF4A861D3
S31508003EB0374801F018FF00F005FD30B9019B23B122
S31508003EC040F24551324801F00EFF0027B84600F08F
S31508003ED059FFA56BA5B131462046013D02F0E1FA2E
S31508003EE0A563236933B104F1100000F061FC08B141
S31508003EF002F0C8FB00F054FF012004B0BDE8F081D1
S31508003F00019D1DB900F04CFF0020F6E717B902A87D
S31508003F1000F090FC00F044FF00F042FA00F032FF97
S31508003F2094F84430FF2B08BF84F8448094F8453051
S31508003F30FF2B08BF84F8458000F032FF01A902A8CC
S31508003F4000F084FCC0B9204602F06BFA70B1019902
S31508003F5004F1240000F0F2FB204602F0B8FA00F063
S31508003F60C1FA08B902F08EFB0127B0E7204602F035
S31508003F70AEFA00F0B7FAF7E7204602F0A8FA00F022
S31508003F80B1FA204602F04DFA0028EDD0BCE700BF92
S31508003F90E076000810B50023064A52F833402CB9DB
S31508003FA042F8331002EBC303586010BD01330A2BE5
S31508003FB0F3D1FAE7641900202DE9F041044600F030
S31508003FC0E1FE2D4B2D4E1A682D4F01321A603568C9
S31508003FD0002D43D134601B68012B1FD1B8464046DB
S31508003FE0013502F0DDF9382D08F11408F7D1DFF8AC
S31508003FF0B880244D404602F0D3F9284602F0D0F99D
S31508004000214802F0CDF9214802F0CAF9204802F009
S31508004010C7F9204BC3F800801F4B1D6014201F4AA8
S315080040201368013313601E4A23641168E36A8B42DE
S3150800403000FB037004F1040188BF136002F0BEF9A7
S3150800404000F0AEFE174B1B689BB13368DA6AE36A69
S315080040509A420ED2BDE8F04102F014BB114B1B6820
S31508004060002BDBD13368DA6AE36A9A4298BF346078
S31508004070D4E7BDE8F08100BF201E0020B419002057
S31508004080C0190020481E0020681E0020941E00202B
S31508004090801E0020B8190020BC1900202C1E002004
S315080040A0301E00207C1E0020341E0020F8B5044671
S315080040B0144B154E1D6830680F46043002F0A1F9FE
S315080040C0631C07D137B1316810480431BDE8F840A0
S315080040D002F074B933682C195C6007D30C4B186866
S315080040E03168BDE8F840043102F074B9094B186824
S315080040F03168043102F06EF9074B1A68A24288BF8C
S315080041001C60F8BDA81E0020B4190020801E0020DF
S31508004110BC190020B81900205C1E0020064A136846
S315080041201968064B19B94FF0FF321A6070471268C2
S31508004130D2681268F9E700BFB81900205C1E002093
S3150800414010B5044620B940F22A71084801F0CBFDA3
S315080041506269074B9A4207D1A06A064B984203D078
S31508004160B0FA80F0400910BD0020FCE73877000857
S31508004170801E0020681E002010B590F855300446B1
S315080041803BB9006B00F056FF2046BDE8104000F032
S3150800419051BF012BF9D0022B06D0BDE8104040F6DE
S315080041A09771024801F09FBD10BD00BF387700081F
S315080041B080B50F4C0F4F104D236833B90F4B1B6852
S315080041C0012BF8D902F05EFAF5E700F0DBFDFB6893
S315080041D0DE68301D02F015F92B68013B2B60236859
S315080041E0013B236000F0DCFD3046FFF7C5FFE3E73F
S315080041F0241E0020941E0020201E0020C019002026
S315080042002DE9F04387B00546DDE90F940E461746BB
S315080042109846B9F1000F04D140F25521184801F02B
S3150800422062FD24B940F25621154801F05CFD582379
S315080042300593059B582B04D040F25E21104801F0E7
S3150800424052FD059BCCB1B9F1000F16D0022384F8B4
S31508004250553004ABC4F8309001930E9B2846009362
S315080042603A4643463146029402F08CF92046FFF757
S31508004270A3FE049807B0BDE8F08300230493F8E78B
S315080042803877000873B5054620B940F28B711C488B
S3150800429001F029FD02F013FA06462846FFF750FFFB
S315080042A00446F8B1174B1C6814BB174BEA6A1B681F
S315080042B0291DDB6A08469A4224BF0124134B019143
S315080042C028BF1C6002F09DF8114AEB6A1068019934
S315080042D083424FF0140088BF13600E4A00FB032088
S315080042E002F06CF8304602F0F5F9204602B070BDCF
S315080042F0094805F1180102F061F80024F2E700BF49
S3150800430038770008281E0020B4190020AC1E0020AB
S31508004310301E0020C0190020681E002030B589B064
S31508004320002507AA06A905A8CDE90555FFF7FAFB52
S31508004330059B079A0293069B1249CDE9005312483A
S315080043402B46FFF75DFF80B100F05EFB01280446AF
S315080043500FD102F0B4F94FF0FF320C4B1A600C4B38
S315080043601C600C4B1D6000F087FD0B4B1B6809B0E9
S3150800437030BD0134F9D140F64301084801F0B3FCD9
S31508004380F3E700BF90770008B14100085C1E0020E3
S315080043907C1E0020A81E0020501000203877000838
S315080043A0024A136801331360704700BF281E0020B5
S315080043B0014B1868704700BFA81E00202DE9F74F6B
S315080043C03C4B1B68002B6ED13B4B1D6801351D60AD
S315080043D09DB93A4C23681B6823B140F6C921384871
S315080043E001F081FC374B2268196821601A60364A49
S315080043F0136801331360FFF791FE344E00243368C7
S31508004400334F9D42DFF8D48011D21422D8F80030F9
S31508004410DB6A5343FB58022B2E4B28BF01241B682B
S31508004420002B18BF0124204603B0BDE8F08FDFF843
S315080044308C90DFF8ACA0D9F800301B681BB94FF098
S31508004440FF333360E1E7D9F80030DB68D3F80CB006
S31508004450DBF80420954201D23260D6E70BF104015D
S315080044600846019101F0CDFFDBF82820019922B119
S315080044700BF1180001F0C5FF01991423DBF82C0095
S31508004480DAF80020904288BFCAF8000003FB0070E3
S3150800449001F094FFD8F80010DBF82C20CB6A9A427A
S315080044A028BF0124C7E70C4A0024136801331360A8
S315080044B0B9E700BF281E0020A81E0020B819002052
S315080044C038770008BC190020601E00205C1E0020FA
S315080044D0C0190020AC1E0020641E0020B41900205C
S315080044E0301E0020F7B52B4C236823B940F6B601D9
S315080044F0294801F0F8FB00F045FC2368013B2360DE
S3150800450024682CB1002400F04BFC204603B0F0BD13
S31508004510224B1B68002BF5D0214D224E224F1EE060
S31508004520EB68DC6804F1180001F06BFF211D0846F2
S31508004530019101F066FF1420E36A326800FB0370FC
S315080045409342019988BF336001F038FF174BE26A3E
S315080045501B68DB6A9A4202D30122154B1A602B6844
S31508004560002BDDD10CB1FFF7D9FD124D2C6844B1F3
S3150800457001270F4EFFF722FF00B13760013CF9D142
S315080045802C600B4B1B68002BBCD002F07BF8012477
S31508004590B9E700BF281E002038770008201E002033
S315080045A0681E0020301E0020C0190020B419002003
S315080045B0AC1E0020641E002010B5044618B9BDE8DC
S315080045C0104002F05FB8094B1B6823B140F24C510A
S315080045D0074801F088FB00212046FFF7E1FEFFF7B8
S315080045E065FDFFF77FFF0028E9D010BD281E0020D3
S315080045F0387700082DE9F041224B1A68224B1AB188
S3150800460001221A60BDE8F081204E1A6033681B6BE0
S315080046101A68B2F1A53F0BD15A68B2F1A53F07D186
S315080046209A68B2F1A53F03D1DB68B3F1A53F04D080
S31508004630306831683431FFF76DFA154F154D3C680F
S31508004640DFF8548014236343E958EA1889B151689E
S31508004650083349682B44994208BF4B68516008BF24
S315080046605360142303FB04556B68DB6833603C60B6
S31508004670C8E724B940F60441404601F034FB013C42
S31508004680E0E700BF281E0020AC1E0020B419002059
S31508004690301E0020C01900203877000870B504467F
S315080046A0204D00F06FFB04B92C68261D304601F03A
S315080046B0A8FEA36A1BB104F1180001F0A2FE314658
S315080046C0194801F07BFE94F85430184E012B04BFAC
S315080046D0002384F8543000F063FB33682BB100F0F4
S315080046E051FBFFF71BFD00F05BFB2B68A34214D1BF
S315080046F033685BB10E4B1B6823B14FF4E0610D487C
S3150800470001F0F1FABDE8704001F0BCBF064A116835
S31508004710094A1268914201D12B6070BDBDE870400C
S31508004720FFF768BFB4190020801E00207C1E0020F9
S31508004730281E002038770008201E002038B50D46B0
S31508004740044620B940F61E41074801F0CCFA074B4B
S3150800475020461968183101F03DFE2846BDE8384064
S315080047600121FFF7A3BC00BF38770008B419002061
S3150800477070B50E461446054620B940F64D410A481E
S3150800478001F0B1FA094B28461968183101F016FEEE
S31508004790002C214608BF3046BDE8704018BF4FF0D0
S315080047A0FF30FFF783BC00BF38770008B419002034
S315080047B013B5C368DC6824B940F67D41164801F094
S315080047C092FA04F118010846019101F01AFE134BFA
S315080047D001991B68F3B9211D0846019101F011FEE4
S315080047E00F4AE36A1068019983424FF0140088BFA4
S315080047F013600C4A00FB032001F0E0FD0A4BE26A55
S315080048001B68DB6A9A4289BF01200020074B1860A3
S3150800481002B010BD0648EFE738770008281E0020CA
S31508004820301E0020C0190020B4190020AC1E00203C
S31508004830681E0020034B1B680360034B1B6843601C
S31508004840704700BF601E0020A81E002070B50D46E8
S31508004850044620B940F6F841144801F044FA25B94F
S3150800486040F6F941114801F03EFA00F08BFA104B78
S3150800487019682B685A1C17D00E48266800686268A3
S31508004880864208D08A4206D8002301242B6000F00D
S3150800489087FA204670BD881A8342F5D95B1A1344F5
S315080048A020462B60FFF7C6FF0024F0E7387700089C
S315080048B0A81E0020601E00200122014B1A607047C6
S315080048C0AC1E0020054B1B6833B1054B1B68002B3B
S315080048D00CBF022000207047012070477C1E002074
S315080048E0281E002013B5044610B9002002B010BDDA
S315080048F0184B1B68834204D041F24A01164801F05E
S31508004900F2F9E36C23B941F24B01134801F0EBF9D4
S31508004910E36CE16AA26C013B9142E364E5D0002BAB
S31508004920E3D1211D0846019101F06BFDA36C0199A5
S31508004930C3F13802A261094AE362106883424FF064
S31508004940140088BF1360064A00FB032001F036FDF9
S315080049500120CBE7B419002038770008301E002064
S31508004960C0190020F7B5114C00F00CFA2568BDB93E
S315080049700F4F104E384601F013FD304601F010FD7A
S315080049800D4B10211F600D4B0A201E600C4A0D4B63
S315080049900095FFF715F9206010B10B49FFF7FAFAF1
S315080049A003B0BDE8F04000F0FBB900BF341F00209B
S315080049B0B81E0020CC1E0020B01E0020B41E002009
S315080049C07C270020E41E00209577000808B5914250
S315080049D0416000610AD8D21A83699A420DD2084BFF
S315080049E0011D186801F0F6FC002008BD9A4201D2A4
S315080049F0994202D2034B011DF3E70120F5E700BFF8
S31508004A00B41E0020B01E002010B588B0FFF7AAFF1C
S31508004A10114B1B68CBB1002407AA06A905A8CDE946
S31508004A200544FFF78BF8059B079A0293069B0B49EB
S31508004A30019328230A4800932346FFF7E1FB094B15
S31508004A40186010B1012008B010BD07484FF48D71E9
S31508004A5001F049F90020F6E7341F00209A7700088C
S31508004A60754B0008381F0020A2770008F0B587B0FC
S31508004A7017460C461A46054630B940F28F110F48BC
S31508004A80019301F030F9019A0D4E306878B1052C82
S31508004A90CDE9024704950CDCFFF714FF0023022832
S31508004AA014BF1A460C9A306802A9FFF701F907B035
S31508004AB0F0BD002302A9FFF791F9F8E7A2770008ED
S31508004AC0341F00202DE9F04F85B00646FFF770FC2D
S31508004AD0DFF898800546D8F8003083423FD94FF072
S31508004AE00009204FDFF888A03B681A685AB91E4AA1
S31508004AF0116813600123396028463360C8F80050EE
S31508004B0005B0BDE8F08FDB68DC68D3F800B0211D7E
S31508004B100846039101F075FC236A2046984794F8E5
S31508004B202830039913F0040FDED0A3695B449B4534
S31508004B3005D238686360246101F04CFCD4E7002391
S31508004B405A4619462046CDF80090FFF78FFF0028F1
S31508004B50CAD140F2B631504601F0C5F8C4E7002381
S31508004B60CAE700BFB01E0020B41E0020E01E0020C9
S31508004B70A27700082DE9F0478AB0694E694D336877
S31508004B80D3F80080B8F1000F56D00024DB68D3F8BC
S31508004B900080FFF705FC06A8FFF794FF069B8246F0
S31508004BA0614F002B62D1002C4DD1404551D3FFF700
S31508004BB099FC3368DB68D3F80C9009F1040001F01E
S31508004BC020FC99F82830580738D5D9F818104346E4
S31508004BD0524648464144FFF7F9FE60B1234642462D
S31508004BE0214648460094FFF741FF20B940F22121AB
S31508004BF0284601F078F84846D9F820309847002228
S31508004C00386806A9FFF744F90028B8D0069B089823
S31508004C10002B2EDB089C6369002B31D105A8FFF712
S31508004C2051FF069B0246092BE9D8DFE803F02D2D34
S31508004C302D535A712D2D535A0124AAE723F0010347
S31508004C4089F82830D7E7394B1B681C68B4FA84F40E
S31508004C50640922463868A8EB0A0101F070FCFFF7E0
S31508004C6041FC0028CBD101F00DFDC8E7FFF73AFC5F
S31508004C70C5E7079B09999847069B002BBFDBC9E741
S31508004C80201D01F0BEFBC9E794F82830A16943F05E
S31508004C90010384F82830079B20461944FFF796FE3F
S31508004CA00028ACD0236A2046984794F8283059073C
S31508004CB0A5D50023A269079920460A4400931946F8
S31508004CC0FFF7D4FE00289AD140F24331284601F076
S31508004CD00AF894E794F8283023F0010384F828307A
S31508004CE08DE794F8283043F0010384F82830079BB1
S31508004CF0A36133B903904FF45771284600F0F3FFC8
S31508004D00039AA169134620461144FFF75FFE76E72A
S31508004D1094F828309A07DFD4204600F08BF96EE71E
S31508004D20B01E0020A2770008341F0020B41E002001
S31508004D3007B500230193084B1B68013304D04FF4D1
S31508004D401571064800F0CFFF01F0B9FC019B002B56
S31508004D50FCD003B05DF804FB54100020FB77000874
S31508004D604FF0E02200234FF47A7113619361044BEC
S31508004D701B68B3FBF1F3013B5361072313617047CB
S31508004D803C10002008B501F09AFC044A1368013368
S31508004D901360BFF34F8FBFF36F8F08BD5410002009
S31508004DA010B5094C236823B940F2ED21074800F0F5
S31508004DB09AFF2368013B2360206818B9BDE81040B4
S31508004DC001F088BC10BD00BF54100020FB77000816
S31508004DD0836913F8023C022B0FD14FF0E023D3F876
S31508004DE0882D42F47002C3F8882DD3F8342F42F088
S31508004DF04042C3F8342FFBF7C3B940F27731014874
S31508004E0000F071BFFB77000810B54FF0807440E9D9
S31508004E100224184A4FF0123440F80C2C4FF0033293
S31508004E204FF0023C40E905244FF0013240F8203C9F
S31508004E3040E9072C4FF010334FF011324FF0093488
S31508004E4040E90A324FF008334FF0073C40E90C348A
S31508004E504FF006334FF0053240E90E3C4FF004336D
S31508004E6040E910326FF0020340F8443C40F8481D10
S31508004E7010BD00BF314D000810B54FF0E0230024E7
S31508004E80D3F8202D42F47F02C3F8202DD3F8202D25
S31508004E9042F07F42C3F8202DFFF762FF044B1C60E7
S31508004EA0FBF78EF9FFF7A6FBFFF742FF204610BD7A
S31508004EB05410002010B50F4B1A461B688342FBD3CB
S31508004EC054681119884201BF416810460919516092
S31508004ED0446801198B4207D1074909688B421FBFED
S31508004EE059681B68091941609042036018BF106031
S31508004EF010BD00BF541F00203C1F00202DE9F843B9
S31508004F000646FFF74DFA4349434D0B680BBB434A28
S31508004F10434C50071DBFD01D20F0070002F5005373
S31508004F204FF400531CBF02461B1A00201344083BCB
S31508004F3023F0070360602260C3E90000981AC2E9FB
S31508004F4000300B60374B1860374B18604FF0004342
S31508004F502B602C6834405AD1731E0A3308D872075E
S31508004F6006F108074DD027F007030833BB4247D898
S31508004F70FFF7B8FA630704D040F21B112B4800F07C
S31508004F80B2FE2046BDE8F883254B1E687268BA4211
S31508004F9002D23068002830D10968B14237D01C687F
S31508004FA03168D21B102A04F10804196010D906EBDF
S31508004FB0070919F0070F03D0DA211C4800F093FE01
S31508004FC073684846DB1BC9F804307760FFF772FF41
S31508004FD014497268D8F8003008689B1A8342C8F8E2
S31508004FE0003038BF0B602B68134373600023104AE8
S31508004FF03360136801331360BAE733460646C5E7DC
S315080050001F46DFF82480D8F80030BB42BCD2002403
S31508005010AEE700BF3C1F0020401F00201C280020D0
S31508005020541F0020481F0020441F002077780008DE
S315080050304C1F002038B5044690B31A4D50F8042C7E
S315080050402B681A4204D140F22F11174800F04BFE84
S3150800505054F8083C23B14FF49871134800F043FE06
S3150800506054F8043C2A6813421AD054F8081CB9B9F3
S3150800507023EA020344F8043CFFF792F90B4A54F872
S31508005080043C1168A4F108000B441360FFF712FFF3
S31508005090074A136801331360BDE83840FFF722BAA0
S315080050A038BD00BF401F002077780008441F002045
S315080050B0501F002053B94AB9002908BF00281CBF51
S315080050C04FF0FF314FF0FF3000F082B9ADF1080C18
S315080050D06DE904CE00F006F8DDF804E0DDE9022308
S315080050E004B070472DE9F04F099D04460F46002B82
S315080050F048D18A42944661D9B2FA82F343B1C3F1E0
S3150800510020019F4002FA03FC9C4020FA01F10F435C
S315080051104FEA1C411FFA8CFE220CB7FBF1F601FB85
S31508005120167706FB0EF042EA0742904208D91CEBB6
S31508005130020206F1FF3702D2904200F237813E465C
S31508005140121AA4B2B2FBF1F001FB102200FB0EFE0C
S3150800515044EA0244A64508D91CEB040400F1FF32D0
S3150800516002D2A64500F21C81104640EA0640A4EB8E
S315080051700E0400261DB1DC400023C5E90043314674
S31508005180BDE8F08F8B4209D9002D00F0FD8000267E
S31508005190C5E9000130463146BDE8F08FB3FA83F61B
S315080051A0002E4BD18B42C0F0F280824240F2EF8053
S315080051B03046002DE3D0C5E90047E0E702B9FFDE37
S315080051C0B2FA82F3002B40F09D80891A4FEA124EFC
S315080051D097B20126200CB1FBFEF20EFB121140EA33
S315080051E0014107FB02F088420FD91CEB010102F1CD
S315080051F0FF382CBF4FF001094FF00009884203D948
S31508005200B9F1000F00F0CF804246091AA4B2B1FBEB
S31508005210FEF00EFB101100FB07F744EA0144A74213
S3150800522008D91CEB040400F1FF3102D2A74200F2B0
S31508005230B4800846E41B40EA02409BE7C6F1200713
S31508005240B34001FA06F422FA07FCF940B2404CEAE8
S31508005250030C20FA07F34FEA1C491C431FFA8CFE7D
S3150800526000FA06F3200CB1FBF9F809FB181140EA1D
S31508005270014108FB0EF088420FD91CEB010108F129
S31508005280FF3A2CBF4FF0010B4FF0000B884203D9B1
S31508005290BBF1000F00F08D80D046091AA4B2B1FB0D
S315080052A0F9F009FB101100FB0EFE44EA01418E4598
S315080052B007D91CEB010100F1FF3401D28E457FD8D6
S315080052C0204640EA0840A1EB0E01A0FB02984145A2
S315080052D04C46C64602D306D14B4504D20138B9EB33
S315080052E0020468EB0C0E002D70D01A1B61EB0E0140
S315080052F022FA06F301FA07F7F14000261F43C5E92B
S3150800530000713CE702FA03FCC3F1200001FA03F23C
S3150800531021FA00F64FEA1C4E24FA00F11FFA8CF720
S315080053209C401143B6FBFEF00A0C0EFB106642EADF
S31508005330064200FB07F696420ED91CEB020200F164
S31508005340FF382CBF4FF001094FF00009964202D9E9
S31508005350B9F1000F31D04046921B89B2B2FBFEF676
S315080053600EFB162241EA024106FB07F28A4207D9DA
S315080053701CEB010106F1FF3801D28A4223D84646C2
S31508005380891A46EA004625E72E462846F7E6841A8D
S3150800539061EB030301201F460BE76444023849E723
S315080053A064440238E1E6023A61442EE7023E62446A
S315080053B0C6E6A8F1020861446FE702386244CBE703
S315080053C0023861447DE7023E6144D9E72E46D6E6B7
S315080053D0704700BF08B5074B044613B1002100E02B
S315080053E000BF054B1868836A03B19847204600F04A
S315080053F06BFB00BF00000000E478000870B50D4D97
S3150800540000260D4C641BA410A64209D10B4D00269C
S315080054100B4C01F0AFFA641BA410A64205D170BD6F
S3150800542055F8043B01369847EEE755F8043B013634
S315080054309847F2E7D8100020D8100020D81000208E
S31508005440DC1000200EB400B59CB06FF000411DAB17
S3150800545002900690079104910848094953F8042BCD
S31508005460059102A90068019300F00CF8029B00223E
S315080054701A701CB05DF804EB03B070475810002092
S315080054800802FFFF2DE9F04F98468B899DB0074625
S315080054901B060D4614460ED50B6963B9402100F06C
S315080054A083FA2860286120B90C233B604FF0FF304F
S315080054B0D1E040236B610023CDF80C804FF0010941
S315080054C0DFF8AC81099320238DF8293030238DF835
S315080054D02A3023469A4613F8012B0AB1252AF9D110
S315080054E0BAEB040B0BD05B4622462946384601F038
S315080054F015F9013000F0AA80099A5A4409929AF8D7
